:100000000C9434000C9451000C9451000C94510049
:100010000C9451000C9451000C9451000C9451001C
:100020000C9451000C9451000C9451000C9451000C
:100030000C9451000C9451000C9451000C945100FC
:100040000C9451000C9451000C94E1000C9451005C
:100050000C9451000C9451000C9451000C945100DC
:100060000C9451000C94510011241FBECFEFD8E026
:10007000DEBFCDBF11E0A0E0B1E0EAEFFEE002C0DC
:1000800005900D92AE37B107D9F725E0AEE7B1E0A4
:1000900001C01D92A43AB207E1F70E9466070C94D2
:1000A0007B070C940000E4E9F1E08AE095E0E43994
:1000B000F90711F08193FACF08952EEF33E0261758
:1000C000370741F021503109F901EC56FE4F90817C
:1000D0009183F5CFF901EC56FE4F80830895FC0122
:1000E000EC56FE4F8F3F23E0920738F40196DC0177
:1000F000AC56BE4F2C912193F5CF0895E4E9F1E081
:1001000020E030E040E050E090E04817590761F00F
:100110002F3F63E0360751F061916A3011F44F5F71
:100120005F4F2F5F3F4FF1CFC901089580E090E00E
:1001300008950E947E00FC01EC56FE4FAF01CF01F6
:10014000841B950B21912A30D1F70895789481E092
:1001500080937D018FEF8AB984B915B81BB80E94CE
:100160005300E4E9F5E0119285E0E43AF807D9F7A5
:1001700008951092C50089E18093C400E1ECF0E09D
:10018000808188698083E2ECF0E0808186608083F2
:10019000089520E030E0F901EC56FA4F908191117A
:1001A00003C08083618308952E5F3F4F2031310566
:1001B00091F708959091C00095FFFCCF8093C60001
:1001C00008951F920F920FB60F9211242F933F9311
:1001D0004F935F936F937F938F939F93AF93BF934F
:1001E000EF93FF9380919301811105C08091C60028
:1001F0008093930106C06091C6000E94C9001092CE
:100200009301FF91EF91BF91AF919F918F917F915A
:100210006F915F914F913F912F910F900FBE0F9073
:100220001F90189584E00E94DA0080E00E94DA00B6
:100230002FEF80E792E0215080409040E1F700C02E
:1002400000000895CF93C82F82E00E94DA008C2F1F
:10025000CF910C94DA00CF93C82F83E00E94DA008C
:100260008C2FCF910C94DA00CF92DF92EF92FF9215
:100270000F931F93CF93DF931F92CDB7DEB77C010F
:10028000862F69830E942B01870169816F7080E14D
:1002900090E06C01C61AD10898012E193F09F801A7
:1002A00081918F018A3041F0882331F02C153D0572
:1002B0001CF40E942201F0CF0F90DF91CF911F918B
:1002C0000F91FF90EF90DF90CF90089520E030E005
:1002D000F901EC56FA4F4081411106C02E5F3F4FA5
:1002E00020313105A9F7F2CF463019F4818190E031
:1002F00005C0413019F4818190E0939510821182FC
:100300000895CF930E94120160E08BE491E00E9477
:100310003401C1E080917D0162E0811106C087E473
:1003200091E00E9434012D9A05C083E491E00E947F
:1003300034012D980E946601863021E0920719F45D
:10034000C0937D01E7CF853021E0920719F4109228
:100350007D01E0CF82309140E9F6CF91089590ED94
:10036000980F9A3020F08F7D8154863048F480EDCC
:10037000860F8A3038F06F7D615481E0663018F066
:1003800080E0089581E00895982F813309F48CC0AE
:10039000823349F0833369F0843389F080E0953308
:1003A00021F480E539C080E237C0963321F480E63D
:1003B00033C080E331C0973321F480E72DC080E45F
:1003C0002BC0983311F480E827C0993311F480E9E9
:1003D00023C0913661F0923671F0933681F09436F5
:1003E00091F09536A1F09636B1F0913411F480EA8F
:1003F00013C0923411F480EB0FC0933411F480ECED
:100400000BC0943411F480ED07C0953411F480EEE4
:1004100003C0963409F480EF613311F48F5F0895BF
:10042000623311F48E5F0895633311F48D5F089584
:10043000643311F48C5F0895653311F48B5F089574
:10044000663311F48A5F0895673311F4895F089564
:10045000683311F4885F0895693311F4875F089554
:10046000613661F0623671F0633681F0643691F086
:100470006536A1F06636B1F0613411F4865F0895F7
:10048000623411F4855F0895633411F4845F089534
:10049000643411F4835F0895653411F4825F089524
:1004A000663421F4815F089580E1B6CF08958F927C
:1004B0009F92AF92BF92CF92DF92EF92FF920F93F3
:1004C0001F93CF93DF931F92CDB7DEB70E94120127
:1004D000A12CB12CA11484E0B80608F033C1F501B9
:1004E000EC56FE4F8081803209F428C18A3009F42D
:1004F00025C18D36E1F58181853609F07CC0828188
:100500008D3609F003C183818A3019F08F7D09F09F
:10051000FDC095012C5F3F4F00E010E0C9018C56F3
:100520009E4F7C01FC019081903229F40F5F1F4F98
:100530002F5F3F4FF3CF9A30C9F3D1806D2D892FB4
:1005400099830E94AF019981882331F0F70182815C
:100550008A3031F08F7D21F060E086E391E0D9C0F0
:100560006D2D892F0E94C401809382013FC0833783
:1005700009F0C6C08181843709F079C08281823751
:1005800009F075C083818A3019F08F7D09F06FC042
:1005900095012C5F3F4F00E010E0C9018C569E4F43
:1005A0007C01FC019081903229F40F5F1F4F2F5F77
:1005B0003F4FF3CF9A30C9F3D1806D2D892F9983A6
:1005C0000E94AF019981882339F2F70182818A3034
:1005D00019F08F7D09F0C0CF6D2D892F0E94C401C5
:1005E000E0918201F0E0ED57FE4F80830A5F1F4FDC
:1005F000A00EB11EA3C08F3609F088C08281863755
:1006000009F084C083818A3019F08F7D09F07EC0A3
:1006100095012C5F3F4F00E010E0C9018C569E4FC2
:100620007C01FC019081903229F40F5F1F4F2F5FF6
:100630003F4FF3CF9A30C9F3D1806D2D892F998325
:100640000E94AF019981882309F486CFF701828146
:100650008A3019F08F7D09F07FCF6D2D892F0E9490
:10066000C401E82FF0E0ED57FE4F8081B9CF8181C2
:100670008537D1F582818236B9F583818A3011F0D0
:100680008F7D91F595012C5F3F4F00E010E0C9018F
:100690008C569E4F7C01FC019081903229F40F5FB3
:1006A0001F4F2F5F3F4FF3CF9A30C9F3D1806D2D8D
:1006B000892F99830E94AF019981882309F44CCF37
:1006C000F70182818A3019F08F7D09F045CF6D2DB9
:1006D000892F0E94C401E0918201F0E0ED57FE4FA6
:1006E0009081981B908382CF8181843779F48281B5
:1006F000803761F483818A30E9F08F7DD9F006C0BC
:100700008F3609F073C08181853779F160E087E128
:1007100091E00E9434010F90DF91CF911F910F91D2
:10072000FF90EF90DF90CF90BF90AF909F908F9011
:100730000C946601AA24AA9483E0B82EFFEFAF1AA6
:10074000BF0AC8CE0E9466010E94120160E080E0EC
:1007500091E00E9434010E946601E3E8F1E0119209
:1007600091E0E339F907D9F77AC28281843771F6CB
:1007700083818A3011F08F7D49F695012C5F3F4FC0
:1007800000E010E0C9018C569E4F7C01FC01908175
:10079000903229F40F5F1F4F2F5F3F4FF3CF9A30F6
:1007A000C9F3D1806D2D892F99830E94AF01998162
:1007B000882309F4D1CEF70182818A3019F08F7D28
:1007C00009F0CACE6D2D892F0E94C401E82FF0E0F8
:1007D000ED57FE4F80810E942B01E0918201F0E0F5
:1007E000ED57FE4F80810E94220100CF8936A9F487
:1007F00081818E3609F08ACFF2E0AF0EB11CF5018F
:10080000EC56FE4F80818A3019F08F7D09F07ECF43
:100810000E946601E0918201F2C1813609F03FC079
:100820008181843609F07BC08281843609F077C0EB
:1008300083818A3019F08F7D09F071C095012C5F9A
:100840003F4F00E010E0C9018C569E4F7C01FC0137
:100850009081903229F40F5F1F4F2F5F3F4FF3CFEE
:100860009A30C9F3D1806D2D892F99830E94AF01F1
:100870009981882309F470CEF70182818A3019F0BA
:100880008F7D09F069CE6D2D892F0E94C401E09102
:100890008201F0E0ED57FE4F9081890FA6CE8A3697
:1008A00009F078C081818D3609F098C08281803747
:1008B00009F094C083818A3019F08F7D09F08EC0D1
:1008C000E0918201F0E0ED57FE4FD08024E9E22E66
:1008D00021E0F22E00E010E0A12CB12CF701819173
:1008E0007F01833271F4F801EC56FE4F6281F7010B
:1008F00080810E94C401D81204C05801F3E0AF0EF9
:10090000B11C0F5F1F4F011584E0180739F7A114C0
:10091000B10409F013CF60E088E291E0FACE818162
:10092000823709F0F3CE82818736B9F4838181362C
:10093000A1F495012C5F3F4FD901AC56BE4F8C916D
:100940008A3011F08F7D49F4E0918201F0E0ED579B
:10095000FE4F80818093810108C18281873609F032
:10096000D5CE8381823609F0D1CE94E0A90EB11C98
:10097000F501EC56FE4F80818A3019F08F7D09F029
:10098000C5CEE0918201F0E0ED57FE4F808180936B
:100990008001D4CE833609F097C081818F3609F06B
:1009A000B5CE82818E3609F0B1CE8381843609F0CE
:1009B000ADCEE4E0AE0EB11CF501EC56FE4F8081E9
:1009C0008A3019F08F7D09F0A1CEE0918201F0E02C
:1009D000ED57FE4F808180937F01B0CE81818336B9
:1009E00009F094CE85010E5F1F4FF801EC56FE4FC3
:1009F00080818A3019F08F7D09F088CEE0918201E4
:100A0000F0E0ED57FE4FB08094E9C92E91E0D92E69
:100A1000E12CF12C812C912CF60181916F01833214
:100A200071F4F701EC56FE4F6281F60180810E945D
:100A3000C401B81204C04701F3E08F0E911C8FEF80
:100A4000E81AF80AE11494E0F90631F781149104E8
:100A500009F461CF80917F01813039F49091810157
:100A60008091800198132DC02DC0823039F490916F
:100A7000810180918001981325C023C0833039F40F
:100A800090918101809180018917E0F01AC0843033
:100A900039F49091810180918001981798F011C0EC
:100AA000853039F49091810180918001981750F43C
:100AB00008C0863039F490918101809180018917B6
:100AC00008F4480154013ACE8332A9F4628181814D
:100AD0000E94AF01882309F419CEE3E0AE0EB11CE9
:100AE000F501EC56FE4F80818A3009F427CE8F7DC8
:100AF00009F424CE0BCE8E3691F481818F3609F025
:100B000005CE8281803709F001CE83818A3019F0C9
:100B10008F7D09F0FBCDF4E0AF0EB11C0FCE803716
:100B200009F072C081818F3609F049C08281823715
:100B3000F1F483818437D9F495012C5F3F4FD901BB
:100B4000AC56BE4F8C918A3011F08F7D81F4E091CC
:100B50008201F0E0ED57FE4F8081833020F060E0AD
:100B600089E091E0D6CD80937E015901E7CD828165
:100B7000853709F0CBCD8381843709F0C7CD84E078
:100B8000A80EB11CF501EC56FE4F80818A3019F099
:100B90008F7D09F0BBCD80917E01E0918201F0E074
:100BA000ED57FE4F811103C0808185B9C7CD8130DB
:100BB00019F4808188B9C2CD80818BB9BFCD8936C7
:100BC00009F0A4CD82818E3609F0A0CD93E0A90E64
:100BD000B11CF501EC56FE4F80818A3019F08F7DF3
:100BE00009F094CD80917E01E0918201811102C0D3
:100BF00085B105C0813011F488B101C08BB1F0E03E
:100C0000ED57FE4F80839ACD843609F07FCD8181E8
:100C1000843609F07BCD8281823709F077CDE3E01D
:100C2000AE0EB11CF501EC56FE4F80818A3019F0F2
:100C30008F7D09F06BCD80917E01E0918201F0E023
:100C4000ED57FE4F811103C0808184B977CD81308B
:100C500019F4808187B972CD80818AB96FCD0F90E8
:100C6000DF91CF911F910F91FF90EF90DF90CF9088
:100C7000BF90AF909F908F9008950E94120160E006
:100C800084E991E00E94340180E00E942B0100E0A1
:100C900010E0C0E0D0E00E941201DD24D394D00E19
:100CA000802FC830D10598F40E947E0060E08C56F9
:100CB0009E4F0E9434018D2D0E947E00009729F0E6
:100CC00060E18C569E4F0E9434018C2F22C00E94FE
:100CD0007E007E0128E0E21AF1088E0D9F1D60E083
:100CE0008C569E4F0E9434018D2D0E947E005C0127
:100CF000892B71F08D2D0E949900E816F90640F4B9
:100D0000C5018E0D9F1D60E18C569E4F0E943401DF
:100D100088E00E942B010E9466017C018F2D99279B
:100D2000892B79F4809192058A3009F0B4CF802F15
:100D30000E947E00BC016C0F7D1F8E2D0E945D0005
:100D40002CC081E0E816F80661F4209709F4A3CFDF
:100D50002197802F0E947E008C0F9D1F0E946F00A4
:100D60009ACFE5E0EE16E1E0FE0629F4209709F4BB
:100D700092CF219790CFF6E0EF16F1E0FF0679F4DD
:100D8000802F0E947E009E012C563E4F820F931FA3
:100D9000FC0180818A3009F47ECF21967CCFF4E07B
:100DA000EF16F1E0FF0669F4809192058A3031F088
:100DB0008D2D0E947E00892B09F46DCF0F5F1F4F90
:100DC00068CF23E0E21621E0F20639F4011511059F
:100DD00009F461CF015011095CCF82E0E81681E08F
:100DE000F80609F058CF0E94570255CFCF930E94C2
:100DF000120160E081E691E00E94340160E184E547
:100E000091E00E94340180E00E942B018EE30E9459
:100E10002201C0E00E946601843021E0920701F5C2
:100E2000C230C1F30E94120160E0C11108C081E626
:100E300091E00E94340160E184E591E007C084E51F
:100E400091E00E94340160E189E591E00E94340163
:100E500080E10E942B018EE30E942201CF5FDACF56
:100E6000833021E0920701F5CC23A1F20E94120108
:100E700060E0C13041F481E691E00E94340160E11C
:100E800084E591E007C084E591E00E94340160E1CF
:100E900089E591E00E94340180E00E942B018EE3FD
:100EA0000E942201C150B6CF8230914009F0B2CFEA
:100EB000C23051F0C11102C00E943D06C13009F09C
:100EC000A9CF0E94810193CFCF9108950E94A600DF
:100ED0000E94B9000E94120160E08DE691E00E943C
:100EE000340180E10E942B010E9466010E941201E0
:0A0EF0000E94F606EBCFF894FFCF46
:100EFA00436F6D706C657465004572723A20626169
:100F0A006420706F7274004572723A2062616420C4
:100F1A00636F6D6D616E64004572723A206E6F2068
:100F2A006C6162656C004572723A20626164206885
:100F3A006578003D3D3E003C3D3D004F4E2020205F
:100F4A004F464600204C656400205265626F6F74FC
:100F5A000020427573656C20496E742E00324D4232
:0E0F6A0020342E3420486D756E64696B0001D2
:00000001FF
